{
  "contractName": "StakeCodeClaimer",
  "abi": [
    {
      "inputs": [
        {
          "internalType": "address",
          "name": "",
          "type": "address"
        }
      ],
      "name": "claimCodes",
      "outputs": [
        {
          "internalType": "string",
          "name": "",
          "type": "string"
        }
      ],
      "stateMutability": "view",
      "type": "function"
    },
    {
      "inputs": [
        {
          "internalType": "string",
          "name": "",
          "type": "string"
        }
      ],
      "name": "codeUsed",
      "outputs": [
        {
          "internalType": "bool",
          "name": "",
          "type": "bool"
        }
      ],
      "stateMutability": "view",
      "type": "function"
    },
    {
      "inputs": [
        {
          "internalType": "address",
          "name": "",
          "type": "address"
        }
      ],
      "name": "stakes",
      "outputs": [
        {
          "internalType": "uint256",
          "name": "",
          "type": "uint256"
        }
      ],
      "stateMutability": "view",
      "type": "function"
    },
    {
      "inputs": [
        {
          "internalType": "uint256",
          "name": "amount",
          "type": "uint256"
        },
        {
          "internalType": "string",
          "name": "claimCode",
          "type": "string"
        }
      ],
      "name": "stake",
      "outputs": [],
      "stateMutability": "nonpayable",
      "type": "function"
    },
    {
      "inputs": [
        {
          "internalType": "string",
          "name": "claimCode",
          "type": "string"
        }
      ],
      "name": "claim",
      "outputs": [
        {
          "internalType": "uint256",
          "name": "",
          "type": "uint256"
        }
      ],
      "stateMutability": "view",
      "type": "function"
    }
  ],
  "bytecode": "0x608060405234801561000f575f80fd5b50610d1a8061001d5f395ff3fe608060405234801561000f575f80fd5b5060043610610055575f3560e01c806316934fc4146100595780638fcfe59a14610089578063e2855adc146100b9578063e7e4e1f7146100e9578063f3fe12c914610105575b5f80fd5b610073600480360381019061006e91906104d5565b610135565b6040516100809190610518565b60405180910390f35b6100a3600480360381019061009e919061066d565b610149565b6040516100b091906106ce565b60405180910390f35b6100d360048036038101906100ce91906104d5565b61017e565b6040516100e09190610761565b60405180910390f35b61010360048036038101906100fe91906107ab565b610219565b005b61011f600480360381019061011a919061066d565b61035b565b60405161012c9190610518565b60405180910390f35b5f602052805f5260405f205f915090505481565b6002818051602081018201805184825260208301602085012081835280955050505050505f915054906101000a900460ff1681565b6001602052805f5260405f205f91509050805461019a90610832565b80601f01602080910402602001604051908101604052809291908181526020018280546101c690610832565b80156102115780601f106101e857610100808354040283529160200191610211565b820191905f5260205f20905b8154815290600101906020018083116101f457829003601f168201915b505050505081565b600281604051610229919061089c565b90815260200160405180910390205f9054906101000a900460ff1615610284576040517f08c379a000000000000000000000000000000000000000000000000000000000815260040161027b906108fc565b60405180910390fd5b815f803373ffffffffffffffffffffffffffffffffffffffff1673ffffffffffffffffffffffffffffffffffffffff1681526020019081526020015f205f8282546102cf9190610947565b925050819055508060015f3373ffffffffffffffffffffffffffffffffffffffff1673ffffffffffffffffffffffffffffffffffffffff1681526020019081526020015f2090816103209190610b17565b506001600282604051610333919061089c565b90815260200160405180910390205f6101000a81548160ff0219169083151502179055505050565b5f8160405160200161036d919061089c565b6040516020818303038152906040528051906020012060015f3373ffffffffffffffffffffffffffffffffffffffff1673ffffffffffffffffffffffffffffffffffffffff1681526020019081526020015f206040516020016103d09190610c66565b6040516020818303038152906040528051906020012014610426576040517f08c379a000000000000000000000000000000000000000000000000000000000815260040161041d90610cc6565b60405180910390fd5b5f803373ffffffffffffffffffffffffffffffffffffffff1673ffffffffffffffffffffffffffffffffffffffff1681526020019081526020015f20549050919050565b5f604051905090565b5f80fd5b5f80fd5b5f73ffffffffffffffffffffffffffffffffffffffff82169050919050565b5f6104a48261047b565b9050919050565b6104b48161049a565b81146104be575f80fd5b50565b5f813590506104cf816104ab565b92915050565b5f602082840312156104ea576104e9610473565b5b5f6104f7848285016104c1565b91505092915050565b5f819050919050565b61051281610500565b82525050565b5f60208201905061052b5f830184610509565b92915050565b5f80fd5b5f80fd5b5f601f19601f8301169050919050565b7f4e487b71000000000000000000000000000000000000000000000000000000005f52604160045260245ffd5b61057f82610539565b810181811067ffffffffffffffff8211171561059e5761059d610549565b5b80604052505050565b5f6105b061046a565b90506105bc8282610576565b919050565b5f67ffffffffffffffff8211156105db576105da610549565b5b6105e482610539565b9050602081019050919050565b828183375f83830152505050565b5f61061161060c846105c1565b6105a7565b90508281526020810184848401111561062d5761062c610535565b5b6106388482856105f1565b509392505050565b5f82601f83011261065457610653610531565b5b81356106648482602086016105ff565b91505092915050565b5f6020828403121561068257610681610473565b5b5f82013567ffffffffffffffff81111561069f5761069e610477565b5b6106ab84828501610640565b91505092915050565b5f8115159050919050565b6106c8816106b4565b82525050565b5f6020820190506106e15f8301846106bf565b92915050565b5f81519050919050565b5f82825260208201905092915050565b5f5b8381101561071e578082015181840152602081019050610703565b5f8484015250505050565b5f610733826106e7565b61073d81856106f1565b935061074d818560208601610701565b61075681610539565b840191505092915050565b5f6020820190508181035f8301526107798184610729565b905092915050565b61078a81610500565b8114610794575f80fd5b50565b5f813590506107a581610781565b92915050565b5f80604083850312156107c1576107c0610473565b5b5f6107ce85828601610797565b925050602083013567ffffffffffffffff8111156107ef576107ee610477565b5b6107fb85828601610640565b9150509250929050565b7f4e487b71000000000000000000000000000000000000000000000000000000005f52602260045260245ffd5b5f600282049050600182168061084957607f821691505b60208210810361085c5761085b610805565b5b50919050565b5f81905092915050565b5f610876826106e7565b6108808185610862565b9350610890818560208601610701565b80840191505092915050565b5f6108a7828461086c565b915081905092915050565b7f436c61696d20636f646520616c726561647920757365640000000000000000005f82015250565b5f6108e66017836106f1565b91506108f1826108b2565b602082019050919050565b5f6020820190508181035f830152610913816108da565b9050919050565b7f4e487b71000000000000000000000000000000000000000000000000000000005f52601160045260245ffd5b5f61095182610500565b915061095c83610500565b92508282019050808211156109745761097361091a565b5b92915050565b5f819050815f5260205f209050919050565b5f6020601f8301049050919050565b5f82821b905092915050565b5f600883026109d67fffffffffffffffffffffffffffffffffffffffffffffffffffffffffffffffff8261099b565b6109e0868361099b565b95508019841693508086168417925050509392505050565b5f819050919050565b5f610a1b610a16610a1184610500565b6109f8565b610500565b9050919050565b5f819050919050565b610a3483610a01565b610a48610a4082610a22565b8484546109a7565b825550505050565b5f90565b610a5c610a50565b610a67818484610a2b565b505050565b5b81811015610a8a57610a7f5f82610a54565b600181019050610a6d565b5050565b601f821115610acf57610aa08161097a565b610aa98461098c565b81016020851015610ab8578190505b610acc610ac48561098c565b830182610a6c565b50505b505050565b5f82821c905092915050565b5f610aef5f1984600802610ad4565b1980831691505092915050565b5f610b078383610ae0565b9150826002028217905092915050565b610b20826106e7565b67ffffffffffffffff811115610b3957610b38610549565b5b610b438254610832565b610b4e828285610a8e565b5f60209050601f831160018114610b7f575f8415610b6d578287015190505b610b778582610afc565b865550610bde565b601f198416610b8d8661097a565b5f5b82811015610bb457848901518255600182019150602085019450602081019050610b8f565b86831015610bd15784890151610bcd601f891682610ae0565b8355505b6001600288020188555050505b505050505050565b5f8154610bf281610832565b610bfc8186610862565b9450600182165f8114610c165760018114610c2b57610c5d565b60ff1983168652811515820286019350610c5d565b610c348561097a565b5f5b83811015610c5557815481890152600182019150602081019050610c36565b838801955050505b50505092915050565b5f610c718284610be6565b915081905092915050565b7f496e76616c696420636c61696d20636f646500000000000000000000000000005f82015250565b5f610cb06012836106f1565b9150610cbb82610c7c565b602082019050919050565b5f6020820190508181035f830152610cdd81610ca4565b905091905056fea2646970667358221220265f66ead5e766988f1e4b105c3076c4f5d0eb7f7ba540e036e632a07f3b7dfd64736f6c63430008150033",
  "immutableReferences": {},
  "source": "// SPDX-License-Identifier: MIT\r\npragma solidity ^0.8.0;\r\n\r\ncontract StakeCodeClaimer {\r\n    mapping(address => uint256) public stakes;\r\n    mapping(address => string) public claimCodes;\r\n    mapping(string => bool) public codeUsed;\r\n\r\n    function stake(uint256 amount, string memory claimCode) public {\r\n        require(!codeUsed[claimCode], \"Claim code already used\");\r\n        stakes[msg.sender] += amount;\r\n        claimCodes[msg.sender] = claimCode;\r\n        codeUsed[claimCode] = true;\r\n    }\r\n\r\n    function claim(string memory claimCode) public view returns (uint256) {\r\n        require(keccak256(abi.encodePacked(claimCodes[msg.sender])) == keccak256(abi.encodePacked(claimCode)), \"Invalid claim code\");\r\n        return stakes[msg.sender];\r\n    }\r\n}\r\n",
  "sourcePath": "C:\\Stake\\StakeCodeClaimer\\contracts\\StakeCodeClaimer.sol",
  "compiler": {
    "name": "solc",
    "version": "0.8.21+commit.d9974bed.Emscripten.clang"
  },
  "schemaVersion": "3.4.16",
  "updatedAt": "2024-11-02T14:28:52.624Z",
  "devdoc": {
    "kind": "dev",
    "methods": {},
    "version": 1
  },
  "userdoc": {
    "kind": "user",
    "methods": {},
    "version": 1
  }
}